{
  "contractName": "ERC721Connector",
  "abi": [
    {
      "inputs": [
        {
          "internalType": "string",
          "name": "name",
          "type": "string"
        },
        {
          "internalType": "string",
          "name": "symbol",
          "type": "string"
        }
      ],
      "stateMutability": "nonpayable",
      "type": "constructor"
    },
    {
      "anonymous": false,
      "inputs": [
        {
          "indexed": true,
          "internalType": "address",
          "name": "_owner",
          "type": "address"
        },
        {
          "indexed": true,
          "internalType": "address",
          "name": "_approved",
          "type": "address"
        },
        {
          "indexed": true,
          "internalType": "uint256",
          "name": "_tokenId",
          "type": "uint256"
        }
      ],
      "name": "Approval",
      "type": "event"
    },
    {
      "anonymous": false,
      "inputs": [
        {
          "indexed": true,
          "internalType": "address",
          "name": "_from",
          "type": "address"
        },
        {
          "indexed": true,
          "internalType": "address",
          "name": "_to",
          "type": "address"
        },
        {
          "indexed": true,
          "internalType": "uint256",
          "name": "_tokenId",
          "type": "uint256"
        }
      ],
      "name": "Transfer",
      "type": "event"
    },
    {
      "inputs": [
        {
          "internalType": "bytes4",
          "name": "interfaceId",
          "type": "bytes4"
        }
      ],
      "name": "_registerInterace",
      "outputs": [],
      "stateMutability": "nonpayable",
      "type": "function"
    },
    {
      "inputs": [
        {
          "internalType": "address",
          "name": "_owner",
          "type": "address"
        }
      ],
      "name": "balanceOf",
      "outputs": [
        {
          "internalType": "uint256",
          "name": "",
          "type": "uint256"
        }
      ],
      "stateMutability": "view",
      "type": "function"
    },
    {
      "inputs": [
        {
          "internalType": "uint256",
          "name": "tokenId",
          "type": "uint256"
        }
      ],
      "name": "getApproved",
      "outputs": [
        {
          "internalType": "address",
          "name": "",
          "type": "address"
        }
      ],
      "stateMutability": "view",
      "type": "function"
    },
    {
      "inputs": [],
      "name": "name",
      "outputs": [
        {
          "internalType": "string",
          "name": "",
          "type": "string"
        }
      ],
      "stateMutability": "view",
      "type": "function"
    },
    {
      "inputs": [
        {
          "internalType": "uint256",
          "name": "_tokenId",
          "type": "uint256"
        }
      ],
      "name": "ownerOf",
      "outputs": [
        {
          "internalType": "address",
          "name": "",
          "type": "address"
        }
      ],
      "stateMutability": "view",
      "type": "function"
    },
    {
      "inputs": [
        {
          "internalType": "bytes4",
          "name": "interfaceID",
          "type": "bytes4"
        }
      ],
      "name": "supportsInterface",
      "outputs": [
        {
          "internalType": "bool",
          "name": "",
          "type": "bool"
        }
      ],
      "stateMutability": "view",
      "type": "function"
    },
    {
      "inputs": [],
      "name": "symbol",
      "outputs": [
        {
          "internalType": "string",
          "name": "",
          "type": "string"
        }
      ],
      "stateMutability": "view",
      "type": "function"
    },
    {
      "inputs": [
        {
          "internalType": "uint256",
          "name": "index",
          "type": "uint256"
        }
      ],
      "name": "tokenByIndex",
      "outputs": [
        {
          "internalType": "uint256",
          "name": "",
          "type": "uint256"
        }
      ],
      "stateMutability": "view",
      "type": "function"
    },
    {
      "inputs": [
        {
          "internalType": "address",
          "name": "owner",
          "type": "address"
        },
        {
          "internalType": "uint256",
          "name": "index",
          "type": "uint256"
        }
      ],
      "name": "tokenOfOwnerByIndex",
      "outputs": [
        {
          "internalType": "uint256",
          "name": "",
          "type": "uint256"
        }
      ],
      "stateMutability": "view",
      "type": "function"
    },
    {
      "inputs": [],
      "name": "totalSupply",
      "outputs": [
        {
          "internalType": "uint256",
          "name": "",
          "type": "uint256"
        }
      ],
      "stateMutability": "view",
      "type": "function"
    },
    {
      "inputs": [
        {
          "internalType": "address",
          "name": "_from",
          "type": "address"
        },
        {
          "internalType": "address",
          "name": "_to",
          "type": "address"
        },
        {
          "internalType": "uint256",
          "name": "_tokenId",
          "type": "uint256"
        }
      ],
      "name": "transferFrom",
      "outputs": [],
      "stateMutability": "nonpayable",
      "type": "function"
    }
  ],
  "bytecode": "0x60806040523480156200001157600080fd5b5060405162001bb638038062001bb6833981810160405281019062000037919062000508565b81816200006a7fffdd78c64677fefebf552bbaacd736a900f78d089080a573101767accccd4b79620001e360201b60201c565b620000bd7f13b182f4c0e5b2efbac0efe6cf6d756c8b89f4b79c5707a043ed9ea740574ee97f7feaf19471f34a12a7eaf32d5f3090aa2260ea8624dc8a138e74e0bf0f62307618620001e360201b60201c565b8160019080519060200190620000d5929190620002bb565b508060029080519060200190620000ee929190620002bb565b505050620001667f22c82707ba960a14c7592ffb6b8cfaa073fed0048a84cc7fa41f6b5bd8e7f2e47f3a6eb71757dfc6e784c1459d26270140c2c147d95ca985c80026fc5301c3eca17f8a7e378434598edc36d108689a030cbc9d7d465de4f74c71bae1028eed6a881b1818620001e360201b60201c565b620001db7f8230223f691b981717299fae9549350a0d894555723531f02108b1f522c1a7977f6da5e1284143cdd2d15038a59bde3be031250f00291d64494c12d967b3a4e0c37fc53637662700e6c65104059db8bba34439e0c32483ab7c34e3ccae52c73954951818620001e360201b60201c565b505062000675565b63ffffffff60e01b817bffffffffffffffffffffffffffffffffffffffffffffffffffffffff191614156200024f576040517f08c379a00000000000000000000000000000000000000000000000000000000081526004016200024690620005ee565b60405180910390fd5b6001600080837bffffffffffffffffffffffffffffffffffffffffffffffffffffffff19167bffffffffffffffffffffffffffffffffffffffffffffffffffffffff1916815260200190815260200160002060006101000a81548160ff02191690831515021790555050565b828054620002c9906200063f565b90600052602060002090601f016020900481019282620002ed576000855562000339565b82601f106200030857805160ff191683800117855562000339565b8280016001018555821562000339579182015b82811115620003385782518255916020019190600101906200031b565b5b5090506200034891906200034c565b5090565b5b80821115620003675760008160009055506001016200034d565b5090565b6000604051905090565b600080fd5b600080fd5b600080fd5b600080fd5b6000601f19601f8301169050919050565b7f4e487b7100000000000000000000000000000000000000000000000000000000600052604160045260246000fd5b620003d48262000389565b810181811067ffffffffffffffff82111715620003f657620003f56200039a565b5b80604052505050565b60006200040b6200036b565b9050620004198282620003c9565b919050565b600067ffffffffffffffff8211156200043c576200043b6200039a565b5b620004478262000389565b9050602081019050919050565b60005b838110156200047457808201518184015260208101905062000457565b8381111562000484576000848401525b50505050565b6000620004a16200049b846200041e565b620003ff565b905082815260208101848484011115620004c057620004bf62000384565b5b620004cd84828562000454565b509392505050565b600082601f830112620004ed57620004ec6200037f565b5b8151620004ff8482602086016200048a565b91505092915050565b6000806040838503121562000522576200052162000375565b5b600083015167ffffffffffffffff8111156200054357620005426200037a565b5b6200055185828601620004d5565b925050602083015167ffffffffffffffff8111156200057557620005746200037a565b5b6200058385828601620004d5565b9150509250929050565b600082825260208201905092915050565b7f4552433136353a20496e76616c696420496e7465726661636500000000000000600082015250565b6000620005d66019836200058d565b9150620005e3826200059e565b602082019050919050565b600060208201905081810360008301526200060981620005c7565b9050919050565b7f4e487b7100000000000000000000000000000000000000000000000000000000600052602260045260246000fd5b600060028204905060018216806200065857607f821691505b602082108114156200066f576200066e62000610565b5b50919050565b61153180620006856000396000f3fe608060405234801561001057600080fd5b50600436106100a95760003560e01c80632f745c59116100715780632f745c59146101665780634f6ccce7146101965780636352211e146101c657806370a08231146101f657806395d89b4114610226578063a6322f5814610244576100a9565b806301ffc9a7146100ae57806306fdde03146100de578063081812fc146100fc57806318160ddd1461012c57806323b872dd1461014a575b600080fd5b6100c860048036038101906100c39190610ca7565b610260565b6040516100d59190610cef565b60405180910390f35b6100e66102c7565b6040516100f39190610da3565b60405180910390f35b61011660048036038101906101119190610dfb565b610359565b6040516101239190610e69565b60405180910390f35b6101346103de565b6040516101419190610e93565b60405180910390f35b610164600480360381019061015f9190610eda565b6103eb565b005b610180600480360381019061017b9190610f2d565b610444565b60405161018d9190610e93565b60405180910390f35b6101b060048036038101906101ab9190610dfb565b6104f4565b6040516101bd9190610e93565b60405180910390f35b6101e060048036038101906101db9190610dfb565b610565565b6040516101ed9190610e69565b60405180910390f35b610210600480360381019061020b9190610f6d565b610617565b60405161021d9190610e93565b60405180910390f35b61022e6106d6565b60405161023b9190610da3565b60405180910390f35b61025e60048036038101906102599190610ca7565b610768565b005b6000806000837bffffffffffffffffffffffffffffffffffffffffffffffffffffffff19167bffffffffffffffffffffffffffffffffffffffffffffffffffffffff1916815260200190815260200160002060009054906101000a900460ff169050919050565b6060600180546102d690610fc9565b80601f016020809104026020016040519081016040528092919081815260200182805461030290610fc9565b801561034f5780601f106103245761010080835404028352916020019161034f565b820191906000526020600020905b81548152906001019060200180831161033257829003601f168201915b5050505050905090565b60006103648261083d565b6103a3576040517f08c379a000000000000000000000000000000000000000000000000000000000815260040161039a90611047565b60405180910390fd5b6005600083815260200190815260200160002060009054906101000a900473ffffffffffffffffffffffffffffffffffffffff169050919050565b6000600680549050905090565b6103f533826108a9565b610434576040517f08c379a000000000000000000000000000000000000000000000000000000000815260040161042b906110b3565b60405180910390fd5b61043f838383610976565b505050565b600061044f83610617565b8210610490576040517f08c379a00000000000000000000000000000000000000000000000000000000081526004016104879061111f565b60405180910390fd5b600860008473ffffffffffffffffffffffffffffffffffffffff1673ffffffffffffffffffffffffffffffffffffffff16815260200190815260200160002082815481106104e1576104e061113f565b5b9060005260206000200154905092915050565b60006104fe6103de565b821061053f576040517f08c379a0000000000000000000000000000000000000000000000000000000008152600401610536906111ba565b60405180910390fd5b600682815481106105535761055261113f565b5b90600052602060002001549050919050565b6000806003600084815260200190815260200160002060009054906101000a900473ffffffffffffffffffffffffffffffffffffffff169050600073ffffffffffffffffffffffffffffffffffffffff168173ffffffffffffffffffffffffffffffffffffffff16141561060e576040517f08c379a000000000000000000000000000000000000000000000000000000000815260040161060590611226565b60405180910390fd5b80915050919050565b60008073ffffffffffffffffffffffffffffffffffffffff168273ffffffffffffffffffffffffffffffffffffffff161415610688576040517f08c379a000000000000000000000000000000000000000000000000000000000815260040161067f90611226565b60405180910390fd5b6106cf600460008473ffffffffffffffffffffffffffffffffffffffff1673ffffffffffffffffffffffffffffffffffffffff168152602001908152602001600020610b9c565b9050919050565b6060600280546106e590610fc9565b80601f016020809104026020016040519081016040528092919081815260200182805461071190610fc9565b801561075e5780601f106107335761010080835404028352916020019161075e565b820191906000526020600020905b81548152906001019060200180831161074157829003601f168201915b5050505050905090565b63ffffffff60e01b817bffffffffffffffffffffffffffffffffffffffffffffffffffffffff191614156107d1576040517f08c379a00000000000000000000000000000000000000000000000000000000081526004016107c890611292565b60405180910390fd5b6001600080837bffffffffffffffffffffffffffffffffffffffffffffffffffffffff19167bffffffffffffffffffffffffffffffffffffffffffffffffffffffff1916815260200190815260200160002060006101000a81548160ff02191690831515021790555050565b60008073ffffffffffffffffffffffffffffffffffffffff166003600084815260200190815260200160002060009054906101000a900473ffffffffffffffffffffffffffffffffffffffff1673ffffffffffffffffffffffffffffffffffffffff1614159050919050565b60006108b48261083d565b6108f3576040517f08c379a00000000000000000000000000000000000000000000000000000000081526004016108ea90611047565b60405180910390fd5b60006108fe83610565565b90508073ffffffffffffffffffffffffffffffffffffffff168473ffffffffffffffffffffffffffffffffffffffff16148061096d57508373ffffffffffffffffffffffffffffffffffffffff1661095584610359565b73ffffffffffffffffffffffffffffffffffffffff16145b91505092915050565b600073ffffffffffffffffffffffffffffffffffffffff168273ffffffffffffffffffffffffffffffffffffffff1614156109e6576040517f08c379a00000000000000000000000000000000000000000000000000000000081526004016109dd90611324565b60405180910390fd5b8273ffffffffffffffffffffffffffffffffffffffff16610a0682610565565b73ffffffffffffffffffffffffffffffffffffffff1614610a5c576040517f08c379a0000000000000000000000000000000000000000000000000000000008152600401610a53906113b6565b60405180910390fd5b610aa3600460008573ffffffffffffffffffffffffffffffffffffffff1673ffffffffffffffffffffffffffffffffffffffff168152602001908152602001600020610baa565b610aea600460008473ffffffffffffffffffffffffffffffffffffffff1673ffffffffffffffffffffffffffffffffffffffff168152602001908152602001600020610bcd565b816003600083815260200190815260200160002060006101000a81548173ffffffffffffffffffffffffffffffffffffffff021916908373ffffffffffffffffffffffffffffffffffffffff160217905550808273ffffffffffffffffffffffffffffffffffffffff168473ffffffffffffffffffffffffffffffffffffffff167fddf252ad1be2c89b69c2b068fc378daa952ba7f163c4a11628f55a4df523b3ef60405160405180910390a4505050565b600081600001549050919050565b610bc260018260000154610bec90919063ffffffff16565b816000018190555050565b6001816000016000828254610be29190611405565b9250508190555050565b6000808284610bfb919061145b565b905083831115610c40576040517f08c379a0000000000000000000000000000000000000000000000000000000008152600401610c37906114db565b60405180910390fd5b8091505092915050565b600080fd5b60007fffffffff0000000000000000000000000000000000000000000000000000000082169050919050565b610c8481610c4f565b8114610c8f57600080fd5b50565b600081359050610ca181610c7b565b92915050565b600060208284031215610cbd57610cbc610c4a565b5b6000610ccb84828501610c92565b91505092915050565b60008115159050919050565b610ce981610cd4565b82525050565b6000602082019050610d046000830184610ce0565b92915050565b600081519050919050565b600082825260208201905092915050565b60005b83811015610d44578082015181840152602081019050610d29565b83811115610d53576000848401525b50505050565b6000601f19601f8301169050919050565b6000610d7582610d0a565b610d7f8185610d15565b9350610d8f818560208601610d26565b610d9881610d59565b840191505092915050565b60006020820190508181036000830152610dbd8184610d6a565b905092915050565b6000819050919050565b610dd881610dc5565b8114610de357600080fd5b50565b600081359050610df581610dcf565b92915050565b600060208284031215610e1157610e10610c4a565b5b6000610e1f84828501610de6565b91505092915050565b600073ffffffffffffffffffffffffffffffffffffffff82169050919050565b6000610e5382610e28565b9050919050565b610e6381610e48565b82525050565b6000602082019050610e7e6000830184610e5a565b92915050565b610e8d81610dc5565b82525050565b6000602082019050610ea86000830184610e84565b92915050565b610eb781610e48565b8114610ec257600080fd5b50565b600081359050610ed481610eae565b92915050565b600080600060608486031215610ef357610ef2610c4a565b5b6000610f0186828701610ec5565b9350506020610f1286828701610ec5565b9250506040610f2386828701610de6565b9150509250925092565b60008060408385031215610f4457610f43610c4a565b5b6000610f5285828601610ec5565b9250506020610f6385828601610de6565b9150509250929050565b600060208284031215610f8357610f82610c4a565b5b6000610f9184828501610ec5565b91505092915050565b7f4e487b7100000000000000000000000000000000000000000000000000000000600052602260045260246000fd5b60006002820490506001821680610fe157607f821691505b60208210811415610ff557610ff4610f9a565b5b50919050565b7f746f6b656e20646f6573206e6f74206578697374000000000000000000000000600082015250565b6000611031601483610d15565b915061103c82610ffb565b602082019050919050565b6000602082019050818103600083015261106081611024565b9050919050565b7f596f7520617265206e6f74206f776e6572206f7220617070726f766564000000600082015250565b600061109d601d83610d15565b91506110a882611067565b602082019050919050565b600060208201905081810360008301526110cc81611090565b9050919050565b7f6f776e657220696e646578206973206f7574206f6620626f756e647300000000600082015250565b6000611109601c83610d15565b9150611114826110d3565b602082019050919050565b60006020820190508181036000830152611138816110fc565b9050919050565b7f4e487b7100000000000000000000000000000000000000000000000000000000600052603260045260246000fd5b7f676c6f62616c20696e646578206973206f7574206f6620626f756e6473000000600082015250565b60006111a4601d83610d15565b91506111af8261116e565b602082019050919050565b600060208201905081810360008301526111d381611197565b9050919050565b7f4e6f6e2d6578697374656e742061646472657373000000000000000000000000600082015250565b6000611210601483610d15565b915061121b826111da565b602082019050919050565b6000602082019050818103600083015261123f81611203565b9050919050565b7f4552433136353a20496e76616c696420496e7465726661636500000000000000600082015250565b600061127c601983610d15565b915061128782611246565b602082019050919050565b600060208201905081810360008301526112ab8161126f565b9050919050565b7f43616e206e6f74207472616e736665727420746f2061207a65726f206164647260008201527f6573730000000000000000000000000000000000000000000000000000000000602082015250565b600061130e602383610d15565b9150611319826112b2565b604082019050919050565b6000602082019050818103600083015261133d81611301565b9050919050565b7f596f75277265206e6f7420746865206f776e6572206f66207468697320746f6b60008201527f656e000000000000000000000000000000000000000000000000000000000000602082015250565b60006113a0602283610d15565b91506113ab82611344565b604082019050919050565b600060208201905081810360008301526113cf81611393565b9050919050565b7f4e487b7100000000000000000000000000000000000000000000000000000000600052601160045260246000fd5b600061141082610dc5565b915061141b83610dc5565b9250827fffffffffffffffffffffffffffffffffffffffffffffffffffffffffffffffff038211156114505761144f6113d6565b5b828201905092915050565b600061146682610dc5565b915061147183610dc5565b925082821015611484576114836113d6565b5b828203905092915050565b7f536166654d6174683a20537562737472616374696f6e204f766572666c6f7700600082015250565b60006114c5601f83610d15565b91506114d08261148f565b602082019050919050565b600060208201905081810360008301526114f4816114b8565b905091905056fea26469706673582212201c26519787ddfdbfded19ee58e107cc079b0611c6775007ade9f2d230a98159664736f6c634300080b0033",
  "immutableReferences": {},
  "source": "// SPDX-License-Identifier: MIT\npragma solidity ^0.8.0;\n\nimport './ERC721Metadata.sol';\nimport './ERC721Enumerable.sol';\n\ncontract ERC721Connector is ERC721Metadata, ERC721Enumerable{\n\n    constructor (string memory name, string memory symbol) ERC721Metadata(name, symbol) {\n\n    }\n}\n",
  "sourcePath": "/Users/kedwin243/nft-marketplace-starter-kit/src/contracts/ERC721Connector.sol",
  "compiler": {
    "name": "solc",
    "version": "0.8.11+commit.d7f03943.Emscripten.clang"
  },
  "schemaVersion": "3.4.1",
  "updatedAt": "2022-01-31T23:14:43.224Z",
  "devdoc": {
    "kind": "dev",
    "methods": {
      "supportsInterface(bytes4)": {
        "details": "Interface identification is specified in ERC-165. This function  uses less than 30,000 gas.",
        "params": {
          "interfaceID": "The interface identifier, as specified in ERC-165"
        },
        "returns": {
          "_0": "`true` if the contract implements `interfaceID` and  `interfaceID` is not 0xffffffff, `false` otherwise"
        }
      },
      "transferFrom(address,address,uint256)": {
        "details": "This works identically to the other function with an extra data parameter,  except this function just sets data to \"\".",
        "params": {
          "_from": "The current owner of the NFT",
          "_to": "The new owner",
          "_tokenId": "The NFT to transfer"
        }
      }
    },
    "version": 1
  },
  "userdoc": {
    "kind": "user",
    "methods": {
      "supportsInterface(bytes4)": {
        "notice": "Query if a contract implements an interface"
      },
      "transferFrom(address,address,uint256)": {
        "notice": "Transfers the ownership of an NFT from one address to another address"
      }
    },
    "version": 1
  }
}