{
  "contractName": "ERC721Enumerable",
  "abi": [
    {
      "inputs": [],
      "stateMutability": "nonpayable",
      "type": "constructor"
    },
    {
      "anonymous": false,
      "inputs": [
        {
          "indexed": true,
          "internalType": "address",
          "name": "_owner",
          "type": "address"
        },
        {
          "indexed": true,
          "internalType": "address",
          "name": "_approved",
          "type": "address"
        },
        {
          "indexed": true,
          "internalType": "uint256",
          "name": "_tokenId",
          "type": "uint256"
        }
      ],
      "name": "Approval",
      "type": "event"
    },
    {
      "anonymous": false,
      "inputs": [
        {
          "indexed": true,
          "internalType": "address",
          "name": "_from",
          "type": "address"
        },
        {
          "indexed": true,
          "internalType": "address",
          "name": "_to",
          "type": "address"
        },
        {
          "indexed": true,
          "internalType": "uint256",
          "name": "_tokenId",
          "type": "uint256"
        }
      ],
      "name": "Transfer",
      "type": "event"
    },
    {
      "inputs": [
        {
          "internalType": "bytes4",
          "name": "interfaceId",
          "type": "bytes4"
        }
      ],
      "name": "_registerInterace",
      "outputs": [],
      "stateMutability": "nonpayable",
      "type": "function"
    },
    {
      "inputs": [
        {
          "internalType": "address",
          "name": "_owner",
          "type": "address"
        }
      ],
      "name": "balanceOf",
      "outputs": [
        {
          "internalType": "uint256",
          "name": "",
          "type": "uint256"
        }
      ],
      "stateMutability": "view",
      "type": "function"
    },
    {
      "inputs": [
        {
          "internalType": "uint256",
          "name": "tokenId",
          "type": "uint256"
        }
      ],
      "name": "getApproved",
      "outputs": [
        {
          "internalType": "address",
          "name": "",
          "type": "address"
        }
      ],
      "stateMutability": "view",
      "type": "function"
    },
    {
      "inputs": [
        {
          "internalType": "uint256",
          "name": "_tokenId",
          "type": "uint256"
        }
      ],
      "name": "ownerOf",
      "outputs": [
        {
          "internalType": "address",
          "name": "",
          "type": "address"
        }
      ],
      "stateMutability": "view",
      "type": "function"
    },
    {
      "inputs": [
        {
          "internalType": "bytes4",
          "name": "interfaceID",
          "type": "bytes4"
        }
      ],
      "name": "supportsInterface",
      "outputs": [
        {
          "internalType": "bool",
          "name": "",
          "type": "bool"
        }
      ],
      "stateMutability": "view",
      "type": "function"
    },
    {
      "inputs": [
        {
          "internalType": "address",
          "name": "_from",
          "type": "address"
        },
        {
          "internalType": "address",
          "name": "_to",
          "type": "address"
        },
        {
          "internalType": "uint256",
          "name": "_tokenId",
          "type": "uint256"
        }
      ],
      "name": "transferFrom",
      "outputs": [],
      "stateMutability": "nonpayable",
      "type": "function"
    },
    {
      "inputs": [],
      "name": "totalSupply",
      "outputs": [
        {
          "internalType": "uint256",
          "name": "",
          "type": "uint256"
        }
      ],
      "stateMutability": "view",
      "type": "function"
    },
    {
      "inputs": [
        {
          "internalType": "uint256",
          "name": "index",
          "type": "uint256"
        }
      ],
      "name": "tokenByIndex",
      "outputs": [
        {
          "internalType": "uint256",
          "name": "",
          "type": "uint256"
        }
      ],
      "stateMutability": "view",
      "type": "function"
    },
    {
      "inputs": [
        {
          "internalType": "address",
          "name": "owner",
          "type": "address"
        },
        {
          "internalType": "uint256",
          "name": "index",
          "type": "uint256"
        }
      ],
      "name": "tokenOfOwnerByIndex",
      "outputs": [
        {
          "internalType": "uint256",
          "name": "",
          "type": "uint256"
        }
      ],
      "stateMutability": "view",
      "type": "function"
    }
  ],
  "bytecode": "0x60806040523480156200001157600080fd5b50620000437fffdd78c64677fefebf552bbaacd736a900f78d089080a573101767accccd4b796200013360201b60201c565b620000b87f22c82707ba960a14c7592ffb6b8cfaa073fed0048a84cc7fa41f6b5bd8e7f2e47f3a6eb71757dfc6e784c1459d26270140c2c147d95ca985c80026fc5301c3eca17f8a7e378434598edc36d108689a030cbc9d7d465de4f74c71bae1028eed6a881b18186200013360201b60201c565b6200012d7f8230223f691b981717299fae9549350a0d894555723531f02108b1f522c1a7977f6da5e1284143cdd2d15038a59bde3be031250f00291d64494c12d967b3a4e0c37fc53637662700e6c65104059db8bba34439e0c32483ab7c34e3ccae52c739549518186200013360201b60201c565b6200028e565b63ffffffff60e01b817bffffffffffffffffffffffffffffffffffffffffffffffffffffffff191614156200019f576040517f08c379a000000000000000000000000000000000000000000000000000000000815260040162000196906200026c565b60405180910390fd5b6001600080837bffffffffffffffffffffffffffffffffffffffffffffffffffffffff19167bffffffffffffffffffffffffffffffffffffffffffffffffffffffff1916815260200190815260200160002060006101000a81548160ff02191690831515021790555050565b600082825260208201905092915050565b7f4552433136353a20496e76616c696420496e7465726661636500000000000000600082015250565b6000620002546019836200020b565b915062000261826200021c565b602082019050919050565b60006020820190508181036000830152620002878162000245565b9050919050565b6112b0806200029e6000396000f3fe608060405234801561001057600080fd5b50600436106100935760003560e01c80632f745c59116100665780632f745c59146101325780634f6ccce7146101625780636352211e1461019257806370a08231146101c2578063a6322f58146101f257610093565b806301ffc9a714610098578063081812fc146100c857806318160ddd146100f857806323b872dd14610116575b600080fd5b6100b260048036038101906100ad9190610b31565b61020e565b6040516100bf9190610b79565b60405180910390f35b6100e260048036038101906100dd9190610bca565b610275565b6040516100ef9190610c38565b60405180910390f35b6101006102fa565b60405161010d9190610c62565b60405180910390f35b610130600480360381019061012b9190610ca9565b610307565b005b61014c60048036038101906101479190610cfc565b610360565b6040516101599190610c62565b60405180910390f35b61017c60048036038101906101779190610bca565b610410565b6040516101899190610c62565b60405180910390f35b6101ac60048036038101906101a79190610bca565b610481565b6040516101b99190610c38565b60405180910390f35b6101dc60048036038101906101d79190610d3c565b610533565b6040516101e99190610c62565b60405180910390f35b61020c60048036038101906102079190610b31565b6105f2565b005b6000806000837bffffffffffffffffffffffffffffffffffffffffffffffffffffffff19167bffffffffffffffffffffffffffffffffffffffffffffffffffffffff1916815260200190815260200160002060009054906101000a900460ff169050919050565b6000610280826106c7565b6102bf576040517f08c379a00000000000000000000000000000000000000000000000000000000081526004016102b690610dc6565b60405180910390fd5b6003600083815260200190815260200160002060009054906101000a900473ffffffffffffffffffffffffffffffffffffffff169050919050565b6000600480549050905090565b6103113382610733565b610350576040517f08c379a000000000000000000000000000000000000000000000000000000000815260040161034790610e32565b60405180910390fd5b61035b838383610800565b505050565b600061036b83610533565b82106103ac576040517f08c379a00000000000000000000000000000000000000000000000000000000081526004016103a390610e9e565b60405180910390fd5b600660008473ffffffffffffffffffffffffffffffffffffffff1673ffffffffffffffffffffffffffffffffffffffff16815260200190815260200160002082815481106103fd576103fc610ebe565b5b9060005260206000200154905092915050565b600061041a6102fa565b821061045b576040517f08c379a000000000000000000000000000000000000000000000000000000000815260040161045290610f39565b60405180910390fd5b6004828154811061046f5761046e610ebe565b5b90600052602060002001549050919050565b6000806001600084815260200190815260200160002060009054906101000a900473ffffffffffffffffffffffffffffffffffffffff169050600073ffffffffffffffffffffffffffffffffffffffff168173ffffffffffffffffffffffffffffffffffffffff16141561052a576040517f08c379a000000000000000000000000000000000000000000000000000000000815260040161052190610fa5565b60405180910390fd5b80915050919050565b60008073ffffffffffffffffffffffffffffffffffffffff168273ffffffffffffffffffffffffffffffffffffffff1614156105a4576040517f08c379a000000000000000000000000000000000000000000000000000000000815260040161059b90610fa5565b60405180910390fd5b6105eb600260008473ffffffffffffffffffffffffffffffffffffffff1673ffffffffffffffffffffffffffffffffffffffff168152602001908152602001600020610a26565b9050919050565b63ffffffff60e01b817bffffffffffffffffffffffffffffffffffffffffffffffffffffffff1916141561065b576040517f08c379a000000000000000000000000000000000000000000000000000000000815260040161065290611011565b60405180910390fd5b6001600080837bffffffffffffffffffffffffffffffffffffffffffffffffffffffff19167bffffffffffffffffffffffffffffffffffffffffffffffffffffffff1916815260200190815260200160002060006101000a81548160ff02191690831515021790555050565b60008073ffffffffffffffffffffffffffffffffffffffff166001600084815260200190815260200160002060009054906101000a900473ffffffffffffffffffffffffffffffffffffffff1673ffffffffffffffffffffffffffffffffffffffff1614159050919050565b600061073e826106c7565b61077d576040517f08c379a000000000000000000000000000000000000000000000000000000000815260040161077490610dc6565b60405180910390fd5b600061078883610481565b90508073ffffffffffffffffffffffffffffffffffffffff168473ffffffffffffffffffffffffffffffffffffffff1614806107f757508373ffffffffffffffffffffffffffffffffffffffff166107df84610275565b73ffffffffffffffffffffffffffffffffffffffff16145b91505092915050565b600073ffffffffffffffffffffffffffffffffffffffff168273ffffffffffffffffffffffffffffffffffffffff161415610870576040517f08c379a0000000000000000000000000000000000000000000000000000000008152600401610867906110a3565b60405180910390fd5b8273ffffffffffffffffffffffffffffffffffffffff1661089082610481565b73ffffffffffffffffffffffffffffffffffffffff16146108e6576040517f08c379a00000000000000000000000000000000000000000000000000000000081526004016108dd90611135565b60405180910390fd5b61092d600260008573ffffffffffffffffffffffffffffffffffffffff1673ffffffffffffffffffffffffffffffffffffffff168152602001908152602001600020610a34565b610974600260008473ffffffffffffffffffffffffffffffffffffffff1673ffffffffffffffffffffffffffffffffffffffff168152602001908152602001600020610a57565b816001600083815260200190815260200160002060006101000a81548173ffffffffffffffffffffffffffffffffffffffff021916908373ffffffffffffffffffffffffffffffffffffffff160217905550808273ffffffffffffffffffffffffffffffffffffffff168473ffffffffffffffffffffffffffffffffffffffff167fddf252ad1be2c89b69c2b068fc378daa952ba7f163c4a11628f55a4df523b3ef60405160405180910390a4505050565b600081600001549050919050565b610a4c60018260000154610a7690919063ffffffff16565b816000018190555050565b6001816000016000828254610a6c9190611184565b9250508190555050565b6000808284610a8591906111da565b905083831115610aca576040517f08c379a0000000000000000000000000000000000000000000000000000000008152600401610ac19061125a565b60405180910390fd5b8091505092915050565b600080fd5b60007fffffffff0000000000000000000000000000000000000000000000000000000082169050919050565b610b0e81610ad9565b8114610b1957600080fd5b50565b600081359050610b2b81610b05565b92915050565b600060208284031215610b4757610b46610ad4565b5b6000610b5584828501610b1c565b91505092915050565b60008115159050919050565b610b7381610b5e565b82525050565b6000602082019050610b8e6000830184610b6a565b92915050565b6000819050919050565b610ba781610b94565b8114610bb257600080fd5b50565b600081359050610bc481610b9e565b92915050565b600060208284031215610be057610bdf610ad4565b5b6000610bee84828501610bb5565b91505092915050565b600073ffffffffffffffffffffffffffffffffffffffff82169050919050565b6000610c2282610bf7565b9050919050565b610c3281610c17565b82525050565b6000602082019050610c4d6000830184610c29565b92915050565b610c5c81610b94565b82525050565b6000602082019050610c776000830184610c53565b92915050565b610c8681610c17565b8114610c9157600080fd5b50565b600081359050610ca381610c7d565b92915050565b600080600060608486031215610cc257610cc1610ad4565b5b6000610cd086828701610c94565b9350506020610ce186828701610c94565b9250506040610cf286828701610bb5565b9150509250925092565b60008060408385031215610d1357610d12610ad4565b5b6000610d2185828601610c94565b9250506020610d3285828601610bb5565b9150509250929050565b600060208284031215610d5257610d51610ad4565b5b6000610d6084828501610c94565b91505092915050565b600082825260208201905092915050565b7f746f6b656e20646f6573206e6f74206578697374000000000000000000000000600082015250565b6000610db0601483610d69565b9150610dbb82610d7a565b602082019050919050565b60006020820190508181036000830152610ddf81610da3565b9050919050565b7f596f7520617265206e6f74206f776e6572206f7220617070726f766564000000600082015250565b6000610e1c601d83610d69565b9150610e2782610de6565b602082019050919050565b60006020820190508181036000830152610e4b81610e0f565b9050919050565b7f6f776e657220696e646578206973206f7574206f6620626f756e647300000000600082015250565b6000610e88601c83610d69565b9150610e9382610e52565b602082019050919050565b60006020820190508181036000830152610eb781610e7b565b9050919050565b7f4e487b7100000000000000000000000000000000000000000000000000000000600052603260045260246000fd5b7f676c6f62616c20696e646578206973206f7574206f6620626f756e6473000000600082015250565b6000610f23601d83610d69565b9150610f2e82610eed565b602082019050919050565b60006020820190508181036000830152610f5281610f16565b9050919050565b7f4e6f6e2d6578697374656e742061646472657373000000000000000000000000600082015250565b6000610f8f601483610d69565b9150610f9a82610f59565b602082019050919050565b60006020820190508181036000830152610fbe81610f82565b9050919050565b7f4552433136353a20496e76616c696420496e7465726661636500000000000000600082015250565b6000610ffb601983610d69565b915061100682610fc5565b602082019050919050565b6000602082019050818103600083015261102a81610fee565b9050919050565b7f43616e206e6f74207472616e736665727420746f2061207a65726f206164647260008201527f6573730000000000000000000000000000000000000000000000000000000000602082015250565b600061108d602383610d69565b915061109882611031565b604082019050919050565b600060208201905081810360008301526110bc81611080565b9050919050565b7f596f75277265206e6f7420746865206f776e6572206f66207468697320746f6b60008201527f656e000000000000000000000000000000000000000000000000000000000000602082015250565b600061111f602283610d69565b915061112a826110c3565b604082019050919050565b6000602082019050818103600083015261114e81611112565b9050919050565b7f4e487b7100000000000000000000000000000000000000000000000000000000600052601160045260246000fd5b600061118f82610b94565b915061119a83610b94565b9250827fffffffffffffffffffffffffffffffffffffffffffffffffffffffffffffffff038211156111cf576111ce611155565b5b828201905092915050565b60006111e582610b94565b91506111f083610b94565b92508282101561120357611202611155565b5b828203905092915050565b7f536166654d6174683a20537562737472616374696f6e204f766572666c6f7700600082015250565b6000611244601f83610d69565b915061124f8261120e565b602082019050919050565b6000602082019050818103600083015261127381611237565b905091905056fea26469706673582212204d6a183bd690c1d36126efac04b1ef97095ed5cd2940273bbdf4801174b924b564736f6c634300080b0033",
  "immutableReferences": {},
  "source": "// SPDX-License-Identifier: MIT\npragma solidity ^0.8.0;\n\nimport './ERC721.sol';\nimport './interfaces/IERC721Enumerable.sol';\n\ncontract ERC721Enumerable is IERC721Enumerable, ERC721 {\n\n    uint256[] private _allTokens;\n\n    //Mapping of tokenId in _alltokens\n    mapping(uint256 => uint256) private _allTokensIndex;\n\n    //Mapping of owner to list all owner tokens\n    mapping(address => uint256[]) private _ownedTokens;\n\n    //Mapping from tokenId to index of the the token's owner list\n    mapping(uint => uint) private _ownedTokensIndex;\n\n    constructor() {\n        _registerInterace(bytes4(keccak256('totalSupply(bytes4)')^\n        keccak256('tokenByIndex(bytes4)')^keccak256('tokenOfOwnerByIndex(bytes4)')));\n    } \n   \n    //return the total supply of the _allTokens array\n    function totalSupply () public override view returns (uint) {\n        return _allTokens.length;\n    }\n    \n    //the argument for the override modifier is optional but we can it for precision\n    //In solidity, we override as we marked the same function virtual\n    //we use the special key super that allows us to grab the mint function\n\n    function _mint(address to, uint256 tokenId) internal override(ERC721) {\n        super._mint(to, tokenId);\n    //add token to the total supply with the push method\n    //was previously _addTokensToTotalSupply\n    //now we can add to the index to\n        _addTokensToAllTokenEnumeration(tokenId);\n    //add token to the rightfull owner\n        _addTokensToOwnerEnumeration(to, tokenId);\n    }\n\n    function _addTokensToAllTokenEnumeration(uint256 tokenId) private {\n    //set the token index of the tokenId to the length since we want it's position\n    //the array\n        _allTokensIndex[tokenId] = _allTokens.length;  \n        _allTokens.push(tokenId);\n    }\n\n    function _addTokensToOwnerEnumeration(address to, uint256 tokenId) private {\n    //set the token index of the tokenId owned by an address to the length of all token\n    //owned by that address since we want it's position in that mapping\n        _ownedTokensIndex[tokenId] = _ownedTokens[to].length;\n    //add the address and the tokenId to the _ownedToken mapping\n        _ownedTokens[to].push(tokenId);    \n    }\n    //Helpers function\n\n    function tokenByIndex(uint256 index) public override view returns (uint) {\n    //make sure that the index is not out of bound so that the code\n    //do not break\n        require (index < totalSupply(), 'global index is out of bounds');\n        return _allTokens[index];\n    }\n    function tokenOfOwnerByIndex(address owner, uint256 index) public override view returns (uint) {\n        require (index < balanceOf(owner), 'owner index is out of bounds');\n        return _ownedTokens[owner][index];\n    }\n\n}",
  "sourcePath": "/Users/kedwin243/nft-marketplace-starter-kit/src/contracts/ERC721Enumerable.sol",
  "compiler": {
    "name": "solc",
    "version": "0.8.11+commit.d7f03943.Emscripten.clang"
  },
  "schemaVersion": "3.4.1",
  "updatedAt": "2022-01-31T23:14:43.239Z",
  "devdoc": {
    "kind": "dev",
    "methods": {
      "supportsInterface(bytes4)": {
        "details": "Interface identification is specified in ERC-165. This function  uses less than 30,000 gas.",
        "params": {
          "interfaceID": "The interface identifier, as specified in ERC-165"
        },
        "returns": {
          "_0": "`true` if the contract implements `interfaceID` and  `interfaceID` is not 0xffffffff, `false` otherwise"
        }
      },
      "transferFrom(address,address,uint256)": {
        "details": "This works identically to the other function with an extra data parameter,  except this function just sets data to \"\".",
        "params": {
          "_from": "The current owner of the NFT",
          "_to": "The new owner",
          "_tokenId": "The NFT to transfer"
        }
      }
    },
    "version": 1
  },
  "userdoc": {
    "kind": "user",
    "methods": {
      "supportsInterface(bytes4)": {
        "notice": "Query if a contract implements an interface"
      },
      "transferFrom(address,address,uint256)": {
        "notice": "Transfers the ownership of an NFT from one address to another address"
      }
    },
    "version": 1
  }
}