{
  "contractName": "ERC721",
  "abi": [
    {
      "inputs": [],
      "stateMutability": "nonpayable",
      "type": "constructor"
    },
    {
      "anonymous": false,
      "inputs": [
        {
          "indexed": true,
          "internalType": "address",
          "name": "_owner",
          "type": "address"
        },
        {
          "indexed": true,
          "internalType": "address",
          "name": "_approved",
          "type": "address"
        },
        {
          "indexed": true,
          "internalType": "uint256",
          "name": "_tokenId",
          "type": "uint256"
        }
      ],
      "name": "Approval",
      "type": "event"
    },
    {
      "anonymous": false,
      "inputs": [
        {
          "indexed": true,
          "internalType": "address",
          "name": "_from",
          "type": "address"
        },
        {
          "indexed": true,
          "internalType": "address",
          "name": "_to",
          "type": "address"
        },
        {
          "indexed": true,
          "internalType": "uint256",
          "name": "_tokenId",
          "type": "uint256"
        }
      ],
      "name": "Transfer",
      "type": "event"
    },
    {
      "inputs": [
        {
          "internalType": "bytes4",
          "name": "interfaceId",
          "type": "bytes4"
        }
      ],
      "name": "_registerInterace",
      "outputs": [],
      "stateMutability": "nonpayable",
      "type": "function"
    },
    {
      "inputs": [
        {
          "internalType": "bytes4",
          "name": "interfaceID",
          "type": "bytes4"
        }
      ],
      "name": "supportsInterface",
      "outputs": [
        {
          "internalType": "bool",
          "name": "",
          "type": "bool"
        }
      ],
      "stateMutability": "view",
      "type": "function"
    },
    {
      "inputs": [
        {
          "internalType": "address",
          "name": "_owner",
          "type": "address"
        }
      ],
      "name": "balanceOf",
      "outputs": [
        {
          "internalType": "uint256",
          "name": "",
          "type": "uint256"
        }
      ],
      "stateMutability": "view",
      "type": "function"
    },
    {
      "inputs": [
        {
          "internalType": "uint256",
          "name": "_tokenId",
          "type": "uint256"
        }
      ],
      "name": "ownerOf",
      "outputs": [
        {
          "internalType": "address",
          "name": "",
          "type": "address"
        }
      ],
      "stateMutability": "view",
      "type": "function"
    },
    {
      "inputs": [
        {
          "internalType": "address",
          "name": "_from",
          "type": "address"
        },
        {
          "internalType": "address",
          "name": "_to",
          "type": "address"
        },
        {
          "internalType": "uint256",
          "name": "_tokenId",
          "type": "uint256"
        }
      ],
      "name": "transferFrom",
      "outputs": [],
      "stateMutability": "nonpayable",
      "type": "function"
    },
    {
      "inputs": [
        {
          "internalType": "uint256",
          "name": "tokenId",
          "type": "uint256"
        }
      ],
      "name": "getApproved",
      "outputs": [
        {
          "internalType": "address",
          "name": "",
          "type": "address"
        }
      ],
      "stateMutability": "view",
      "type": "function"
    }
  ],
  "bytecode": "0x608060405234801561001057600080fd5b506100407fffdd78c64677fefebf552bbaacd736a900f78d089080a573101767accccd4b796100b860201b60201c565b6100b37f22c82707ba960a14c7592ffb6b8cfaa073fed0048a84cc7fa41f6b5bd8e7f2e47f3a6eb71757dfc6e784c1459d26270140c2c147d95ca985c80026fc5301c3eca17f8a7e378434598edc36d108689a030cbc9d7d465de4f74c71bae1028eed6a881b18186100b860201b60201c565b61020a565b63ffffffff60e01b817bffffffffffffffffffffffffffffffffffffffffffffffffffffffff19161415610121576040517f08c379a0000000000000000000000000000000000000000000000000000000008152600401610118906101ea565b60405180910390fd5b6001600080837bffffffffffffffffffffffffffffffffffffffffffffffffffffffff19167bffffffffffffffffffffffffffffffffffffffffffffffffffffffff1916815260200190815260200160002060006101000a81548160ff02191690831515021790555050565b600082825260208201905092915050565b7f4552433136353a20496e76616c696420496e7465726661636500000000000000600082015250565b60006101d460198361018d565b91506101df8261019e565b602082019050919050565b60006020820190508181036000830152610203816101c7565b9050919050565b610f8c806200021a6000396000f3fe608060405234801561001057600080fd5b50600436106100625760003560e01c806301ffc9a714610067578063081812fc1461009757806323b872dd146100c75780636352211e146100e357806370a0823114610113578063a6322f5814610143575b600080fd5b610081600480360381019061007c9190610954565b61015f565b60405161008e919061099c565b60405180910390f35b6100b160048036038101906100ac91906109ed565b6101c6565b6040516100be9190610a5b565b60405180910390f35b6100e160048036038101906100dc9190610aa2565b61024b565b005b6100fd60048036038101906100f891906109ed565b6102a4565b60405161010a9190610a5b565b60405180910390f35b61012d60048036038101906101289190610af5565b610356565b60405161013a9190610b31565b60405180910390f35b61015d60048036038101906101589190610954565b610415565b005b6000806000837bffffffffffffffffffffffffffffffffffffffffffffffffffffffff19167bffffffffffffffffffffffffffffffffffffffffffffffffffffffff1916815260200190815260200160002060009054906101000a900460ff169050919050565b60006101d1826104ea565b610210576040517f08c379a000000000000000000000000000000000000000000000000000000000815260040161020790610ba9565b60405180910390fd5b6003600083815260200190815260200160002060009054906101000a900473ffffffffffffffffffffffffffffffffffffffff169050919050565b6102553382610556565b610294576040517f08c379a000000000000000000000000000000000000000000000000000000000815260040161028b90610c15565b60405180910390fd5b61029f838383610623565b505050565b6000806001600084815260200190815260200160002060009054906101000a900473ffffffffffffffffffffffffffffffffffffffff169050600073ffffffffffffffffffffffffffffffffffffffff168173ffffffffffffffffffffffffffffffffffffffff16141561034d576040517f08c379a000000000000000000000000000000000000000000000000000000000815260040161034490610c81565b60405180910390fd5b80915050919050565b60008073ffffffffffffffffffffffffffffffffffffffff168273ffffffffffffffffffffffffffffffffffffffff1614156103c7576040517f08c379a00000000000000000000000000000000000000000000000000000000081526004016103be90610c81565b60405180910390fd5b61040e600260008473ffffffffffffffffffffffffffffffffffffffff1673ffffffffffffffffffffffffffffffffffffffff168152602001908152602001600020610849565b9050919050565b63ffffffff60e01b817bffffffffffffffffffffffffffffffffffffffffffffffffffffffff1916141561047e576040517f08c379a000000000000000000000000000000000000000000000000000000000815260040161047590610ced565b60405180910390fd5b6001600080837bffffffffffffffffffffffffffffffffffffffffffffffffffffffff19167bffffffffffffffffffffffffffffffffffffffffffffffffffffffff1916815260200190815260200160002060006101000a81548160ff02191690831515021790555050565b60008073ffffffffffffffffffffffffffffffffffffffff166001600084815260200190815260200160002060009054906101000a900473ffffffffffffffffffffffffffffffffffffffff1673ffffffffffffffffffffffffffffffffffffffff1614159050919050565b6000610561826104ea565b6105a0576040517f08c379a000000000000000000000000000000000000000000000000000000000815260040161059790610ba9565b60405180910390fd5b60006105ab836102a4565b90508073ffffffffffffffffffffffffffffffffffffffff168473ffffffffffffffffffffffffffffffffffffffff16148061061a57508373ffffffffffffffffffffffffffffffffffffffff16610602846101c6565b73ffffffffffffffffffffffffffffffffffffffff16145b91505092915050565b600073ffffffffffffffffffffffffffffffffffffffff168273ffffffffffffffffffffffffffffffffffffffff161415610693576040517f08c379a000000000000000000000000000000000000000000000000000000000815260040161068a90610d7f565b60405180910390fd5b8273ffffffffffffffffffffffffffffffffffffffff166106b3826102a4565b73ffffffffffffffffffffffffffffffffffffffff1614610709576040517f08c379a000000000000000000000000000000000000000000000000000000000815260040161070090610e11565b60405180910390fd5b610750600260008573ffffffffffffffffffffffffffffffffffffffff1673ffffffffffffffffffffffffffffffffffffffff168152602001908152602001600020610857565b610797600260008473ffffffffffffffffffffffffffffffffffffffff1673ffffffffffffffffffffffffffffffffffffffff16815260200190815260200160002061087a565b816001600083815260200190815260200160002060006101000a81548173ffffffffffffffffffffffffffffffffffffffff021916908373ffffffffffffffffffffffffffffffffffffffff160217905550808273ffffffffffffffffffffffffffffffffffffffff168473ffffffffffffffffffffffffffffffffffffffff167fddf252ad1be2c89b69c2b068fc378daa952ba7f163c4a11628f55a4df523b3ef60405160405180910390a4505050565b600081600001549050919050565b61086f6001826000015461089990919063ffffffff16565b816000018190555050565b600181600001600082825461088f9190610e60565b9250508190555050565b60008082846108a89190610eb6565b9050838311156108ed576040517f08c379a00000000000000000000000000000000000000000000000000000000081526004016108e490610f36565b60405180910390fd5b8091505092915050565b600080fd5b60007fffffffff0000000000000000000000000000000000000000000000000000000082169050919050565b610931816108fc565b811461093c57600080fd5b50565b60008135905061094e81610928565b92915050565b60006020828403121561096a576109696108f7565b5b60006109788482850161093f565b91505092915050565b60008115159050919050565b61099681610981565b82525050565b60006020820190506109b1600083018461098d565b92915050565b6000819050919050565b6109ca816109b7565b81146109d557600080fd5b50565b6000813590506109e7816109c1565b92915050565b600060208284031215610a0357610a026108f7565b5b6000610a11848285016109d8565b91505092915050565b600073ffffffffffffffffffffffffffffffffffffffff82169050919050565b6000610a4582610a1a565b9050919050565b610a5581610a3a565b82525050565b6000602082019050610a706000830184610a4c565b92915050565b610a7f81610a3a565b8114610a8a57600080fd5b50565b600081359050610a9c81610a76565b92915050565b600080600060608486031215610abb57610aba6108f7565b5b6000610ac986828701610a8d565b9350506020610ada86828701610a8d565b9250506040610aeb868287016109d8565b9150509250925092565b600060208284031215610b0b57610b0a6108f7565b5b6000610b1984828501610a8d565b91505092915050565b610b2b816109b7565b82525050565b6000602082019050610b466000830184610b22565b92915050565b600082825260208201905092915050565b7f746f6b656e20646f6573206e6f74206578697374000000000000000000000000600082015250565b6000610b93601483610b4c565b9150610b9e82610b5d565b602082019050919050565b60006020820190508181036000830152610bc281610b86565b9050919050565b7f596f7520617265206e6f74206f776e6572206f7220617070726f766564000000600082015250565b6000610bff601d83610b4c565b9150610c0a82610bc9565b602082019050919050565b60006020820190508181036000830152610c2e81610bf2565b9050919050565b7f4e6f6e2d6578697374656e742061646472657373000000000000000000000000600082015250565b6000610c6b601483610b4c565b9150610c7682610c35565b602082019050919050565b60006020820190508181036000830152610c9a81610c5e565b9050919050565b7f4552433136353a20496e76616c696420496e7465726661636500000000000000600082015250565b6000610cd7601983610b4c565b9150610ce282610ca1565b602082019050919050565b60006020820190508181036000830152610d0681610cca565b9050919050565b7f43616e206e6f74207472616e736665727420746f2061207a65726f206164647260008201527f6573730000000000000000000000000000000000000000000000000000000000602082015250565b6000610d69602383610b4c565b9150610d7482610d0d565b604082019050919050565b60006020820190508181036000830152610d9881610d5c565b9050919050565b7f596f75277265206e6f7420746865206f776e6572206f66207468697320746f6b60008201527f656e000000000000000000000000000000000000000000000000000000000000602082015250565b6000610dfb602283610b4c565b9150610e0682610d9f565b604082019050919050565b60006020820190508181036000830152610e2a81610dee565b9050919050565b7f4e487b7100000000000000000000000000000000000000000000000000000000600052601160045260246000fd5b6000610e6b826109b7565b9150610e76836109b7565b9250827fffffffffffffffffffffffffffffffffffffffffffffffffffffffffffffffff03821115610eab57610eaa610e31565b5b828201905092915050565b6000610ec1826109b7565b9150610ecc836109b7565b925082821015610edf57610ede610e31565b5b828203905092915050565b7f536166654d6174683a20537562737472616374696f6e204f766572666c6f7700600082015250565b6000610f20601f83610b4c565b9150610f2b82610eea565b602082019050919050565b60006020820190508181036000830152610f4f81610f13565b905091905056fea26469706673582212209959e040de5e77c9a9f6aacc772f34a0c22ceb4c46d5527fb99bb31f506beb2d64736f6c634300080b0033",
  "immutableReferences": {},
  "source": "// SPDX-License-Identifier: MIT\npragma solidity ^0.8.0;\n\nimport './ERC165.sol';\nimport './interfaces/IERC721.sol';\nimport './Libraries/Counters.sol';\n\n    /*\n    Building our minting function\n     1. NFT has to point to an address\n     2. Keep track of the token ids\n     3. Keep track of token owner addresses to token ids\n     4. Keep track of how many tokens an owner address has\n     5. Create an event that emits a transfer log - contract\n     address, where is it being minted to, the id\n\n    */\n\ncontract ERC721 is ERC165, IERC721 {\n\n    using SafeMath for uint256;\n    using Counters for Counters.Counter;\n\n    //I just comment events because they're already inherited\n    /*event Transfer (\n        address indexed from,\n        address indexed to,\n        uint indexed tokenId);\n\n    event Approval (\n        address indexed owner,\n        address indexed to,\n        uint indexed tokenId);\n    */\n    //A mapping create a hash table of key pair values\n    //Mapping from token id to owner address\n\n    mapping (uint256 => address) private _tokenOwner;\n\n    //mapping from owner to number of owned tokens\n    mapping (address => Counters.Counter) private _ownerTokenCount;\n\n    //mapping from token Id to approval addresses\n    mapping (uint256 => address) private _tokenApprovals;\n\n    constructor() {\n        _registerInterace(bytes4(keccak256('balanceOf(bytes4)')^\n        keccak256('ownerOf(bytes4)')^keccak256('transferFrom(bytes4)')));\n    }\n\n\n    function _mint(address to, uint tokenId) internal virtual {\n        //cannot mint to a zero address\n        require(to != address(0), \"Not minting to a 0 address\");\n        //cannot mint a tokenId that already exist\n        require(!_checkId(tokenId), \"The tokenId already exists\");\n        //adding a new address with the Id\n        _tokenOwner[tokenId] = to;\n        //adding the count of token to the address that mint it\n        _ownerTokenCount[to].increment();\n        emit Transfer(address(0), to, tokenId);\n    }\n    function _checkId(uint tokenId) internal view returns(bool) {\n        //let set the owner of the token from \n        //our mapping\n        address owner = _tokenOwner[tokenId];\n        //setting the thruthness of the statement\n        return owner != address(0);\n    }\n\n    //Number of token of each owner\n    //The address have to exist\n    function balanceOf(address _owner) public view returns (uint) {\n        require(_owner != address(0), 'Non-existent address');\n        return _ownerTokenCount[_owner].current();\n    }\n\n    function ownerOf(uint _tokenId) public view returns (address) {\n        address _owner = _tokenOwner[_tokenId];\n        require(_owner != address(0), 'Non-existent address');\n        return _owner;\n    }\n    function _transferFrom(address _from, address _to, uint256 _tokenId) internal {\n        require(_to != address(0), 'Can not transfert to a zero address');\n        require(ownerOf(_tokenId) == _from, \"You're not the owner of this token\");\n\n        _ownerTokenCount[_from].decrement();\n        _ownerTokenCount[_to].increment();\n\n        _tokenOwner[_tokenId] = _to;\n\n        emit Transfer(_from, _to, _tokenId);\n    }\n\n    function transferFrom(address _from, address _to, uint256 _tokenId) override public {\n        require(isApprovedOrOwner(msg.sender, _tokenId),\"You are not owner or approved\");\n        _transferFrom(_from, _to, _tokenId);\n    }\n    \n    /*function approve(address _to, uint256 _tokenId) public {\n        address owner = ownerOf(_tokenId);\n        //make sure the person approving is the owner of the tokenId\n        require (msg.sender == owner, \"you are not the current owner\");\n        //we can't approve sending tokens from the owner to the owner\n        require(_to != owner, \"You can not approve to the current owner\");\n        \n        _tokenApprovals[_tokenId] = _to;\n\n        emit Approval(owner, _to, _tokenId);\n\n    }*/\n    function _exists (uint256 _tokenId) internal view returns (bool) {\n        return _tokenOwner[_tokenId] != address(0);\n    }\n    //find out what address is approve for the tokenId\n    function getApproved (uint256 tokenId) public view returns (address) {\n        require(_exists(tokenId), \"token does not exist\");\n        return _tokenApprovals[tokenId];\n    }\n    function isApprovedOrOwner(address spender, uint256 tokenId) internal view returns (bool) {\n        require(_exists(tokenId), \"token does not exist\");\n        address owner = ownerOf(tokenId);\n        return (spender == owner || getApproved(tokenId) == spender);\n    }\n    \n}",
  "sourcePath": "/Users/kedwin243/nft-marketplace-starter-kit/src/contracts/ERC721.sol",
  "compiler": {
    "name": "solc",
    "version": "0.8.11+commit.d7f03943.Emscripten.clang"
  },
  "schemaVersion": "3.4.1",
  "updatedAt": "2022-01-31T23:14:43.209Z",
  "devdoc": {
    "kind": "dev",
    "methods": {
      "supportsInterface(bytes4)": {
        "details": "Interface identification is specified in ERC-165. This function  uses less than 30,000 gas.",
        "params": {
          "interfaceID": "The interface identifier, as specified in ERC-165"
        },
        "returns": {
          "_0": "`true` if the contract implements `interfaceID` and  `interfaceID` is not 0xffffffff, `false` otherwise"
        }
      },
      "transferFrom(address,address,uint256)": {
        "details": "This works identically to the other function with an extra data parameter,  except this function just sets data to \"\".",
        "params": {
          "_from": "The current owner of the NFT",
          "_to": "The new owner",
          "_tokenId": "The NFT to transfer"
        }
      }
    },
    "version": 1
  },
  "userdoc": {
    "kind": "user",
    "methods": {
      "supportsInterface(bytes4)": {
        "notice": "Query if a contract implements an interface"
      },
      "transferFrom(address,address,uint256)": {
        "notice": "Transfers the ownership of an NFT from one address to another address"
      }
    },
    "version": 1
  }
}