{
  "contractName": "KryptoBird",
  "abi": [
    {
      "inputs": [],
      "stateMutability": "nonpayable",
      "type": "constructor"
    },
    {
      "anonymous": false,
      "inputs": [
        {
          "indexed": true,
          "internalType": "address",
          "name": "_owner",
          "type": "address"
        },
        {
          "indexed": true,
          "internalType": "address",
          "name": "_approved",
          "type": "address"
        },
        {
          "indexed": true,
          "internalType": "uint256",
          "name": "_tokenId",
          "type": "uint256"
        }
      ],
      "name": "Approval",
      "type": "event"
    },
    {
      "anonymous": false,
      "inputs": [
        {
          "indexed": true,
          "internalType": "address",
          "name": "_from",
          "type": "address"
        },
        {
          "indexed": true,
          "internalType": "address",
          "name": "_to",
          "type": "address"
        },
        {
          "indexed": true,
          "internalType": "uint256",
          "name": "_tokenId",
          "type": "uint256"
        }
      ],
      "name": "Transfer",
      "type": "event"
    },
    {
      "inputs": [
        {
          "internalType": "bytes4",
          "name": "interfaceId",
          "type": "bytes4"
        }
      ],
      "name": "_registerInterace",
      "outputs": [],
      "stateMutability": "nonpayable",
      "type": "function"
    },
    {
      "inputs": [
        {
          "internalType": "address",
          "name": "_owner",
          "type": "address"
        }
      ],
      "name": "balanceOf",
      "outputs": [
        {
          "internalType": "uint256",
          "name": "",
          "type": "uint256"
        }
      ],
      "stateMutability": "view",
      "type": "function",
      "constant": true
    },
    {
      "inputs": [
        {
          "internalType": "uint256",
          "name": "tokenId",
          "type": "uint256"
        }
      ],
      "name": "getApproved",
      "outputs": [
        {
          "internalType": "address",
          "name": "",
          "type": "address"
        }
      ],
      "stateMutability": "view",
      "type": "function",
      "constant": true
    },
    {
      "inputs": [
        {
          "internalType": "uint256",
          "name": "",
          "type": "uint256"
        }
      ],
      "name": "kryptoBirdz",
      "outputs": [
        {
          "internalType": "string",
          "name": "",
          "type": "string"
        }
      ],
      "stateMutability": "view",
      "type": "function",
      "constant": true
    },
    {
      "inputs": [],
      "name": "name",
      "outputs": [
        {
          "internalType": "string",
          "name": "",
          "type": "string"
        }
      ],
      "stateMutability": "view",
      "type": "function",
      "constant": true
    },
    {
      "inputs": [
        {
          "internalType": "uint256",
          "name": "_tokenId",
          "type": "uint256"
        }
      ],
      "name": "ownerOf",
      "outputs": [
        {
          "internalType": "address",
          "name": "",
          "type": "address"
        }
      ],
      "stateMutability": "view",
      "type": "function",
      "constant": true
    },
    {
      "inputs": [
        {
          "internalType": "bytes4",
          "name": "interfaceID",
          "type": "bytes4"
        }
      ],
      "name": "supportsInterface",
      "outputs": [
        {
          "internalType": "bool",
          "name": "",
          "type": "bool"
        }
      ],
      "stateMutability": "view",
      "type": "function",
      "constant": true
    },
    {
      "inputs": [],
      "name": "symbol",
      "outputs": [
        {
          "internalType": "string",
          "name": "",
          "type": "string"
        }
      ],
      "stateMutability": "view",
      "type": "function",
      "constant": true
    },
    {
      "inputs": [
        {
          "internalType": "uint256",
          "name": "index",
          "type": "uint256"
        }
      ],
      "name": "tokenByIndex",
      "outputs": [
        {
          "internalType": "uint256",
          "name": "",
          "type": "uint256"
        }
      ],
      "stateMutability": "view",
      "type": "function",
      "constant": true
    },
    {
      "inputs": [
        {
          "internalType": "address",
          "name": "owner",
          "type": "address"
        },
        {
          "internalType": "uint256",
          "name": "index",
          "type": "uint256"
        }
      ],
      "name": "tokenOfOwnerByIndex",
      "outputs": [
        {
          "internalType": "uint256",
          "name": "",
          "type": "uint256"
        }
      ],
      "stateMutability": "view",
      "type": "function",
      "constant": true
    },
    {
      "inputs": [],
      "name": "totalSupply",
      "outputs": [
        {
          "internalType": "uint256",
          "name": "",
          "type": "uint256"
        }
      ],
      "stateMutability": "view",
      "type": "function",
      "constant": true
    },
    {
      "inputs": [
        {
          "internalType": "address",
          "name": "_from",
          "type": "address"
        },
        {
          "internalType": "address",
          "name": "_to",
          "type": "address"
        },
        {
          "internalType": "uint256",
          "name": "_tokenId",
          "type": "uint256"
        }
      ],
      "name": "transferFrom",
      "outputs": [],
      "stateMutability": "nonpayable",
      "type": "function"
    },
    {
      "inputs": [
        {
          "internalType": "string",
          "name": "_kryptoBird",
          "type": "string"
        }
      ],
      "name": "mint",
      "outputs": [],
      "stateMutability": "nonpayable",
      "type": "function"
    }
  ],
  "bytecode": "0x60806040523480156200001157600080fd5b506040518060400160405280600a81526020017f4b727970746f42697264000000000000000000000000000000000000000000008152506040518060400160405280600581526020017f4b4249445a0000000000000000000000000000000000000000000000000000008152508181620000b17fffdd78c64677fefebf552bbaacd736a900f78d089080a573101767accccd4b796200022a60201b60201c565b620001047f13b182f4c0e5b2efbac0efe6cf6d756c8b89f4b79c5707a043ed9ea740574ee97f7feaf19471f34a12a7eaf32d5f3090aa2260ea8624dc8a138e74e0bf0f623076186200022a60201b60201c565b81600190805190602001906200011c92919062000302565b5080600290805190602001906200013592919062000302565b505050620001ad7f22c82707ba960a14c7592ffb6b8cfaa073fed0048a84cc7fa41f6b5bd8e7f2e47f3a6eb71757dfc6e784c1459d26270140c2c147d95ca985c80026fc5301c3eca17f8a7e378434598edc36d108689a030cbc9d7d465de4f74c71bae1028eed6a881b18186200022a60201b60201c565b620002227f8230223f691b981717299fae9549350a0d894555723531f02108b1f522c1a7977f6da5e1284143cdd2d15038a59bde3be031250f00291d64494c12d967b3a4e0c37fc53637662700e6c65104059db8bba34439e0c32483ab7c34e3ccae52c739549518186200022a60201b60201c565b50506200049a565b63ffffffff60e01b817bffffffffffffffffffffffffffffffffffffffffffffffffffffffff1916141562000296576040517f08c379a00000000000000000000000000000000000000000000000000000000081526004016200028d9062000413565b60405180910390fd5b6001600080837bffffffffffffffffffffffffffffffffffffffffffffffffffffffff19167bffffffffffffffffffffffffffffffffffffffffffffffffffffffff1916815260200190815260200160002060006101000a81548160ff02191690831515021790555050565b828054620003109062000464565b90600052602060002090601f01602090048101928262000334576000855562000380565b82601f106200034f57805160ff191683800117855562000380565b8280016001018555821562000380579182015b828111156200037f57825182559160200191906001019062000362565b5b5090506200038f919062000393565b5090565b5b80821115620003ae57600081600090555060010162000394565b5090565b600082825260208201905092915050565b7f4552433136353a20496e76616c696420496e7465726661636500000000000000600082015250565b6000620003fb601983620003b2565b91506200040882620003c3565b602082019050919050565b600060208201905081810360008301526200042e81620003ec565b9050919050565b7f4e487b7100000000000000000000000000000000000000000000000000000000600052602260045260246000fd5b600060028204905060018216806200047d57607f821691505b6020821081141562000494576200049362000435565b5b50919050565b611e9180620004aa6000396000f3fe608060405234801561001057600080fd5b50600436106100cf5760003560e01c80634f6ccce71161008c57806393ab6e561161006657806393ab6e561461024c57806395d89b411461027c578063a6322f581461029a578063d85d3d27146102b6576100cf565b80634f6ccce7146101bc5780636352211e146101ec57806370a082311461021c576100cf565b806301ffc9a7146100d457806306fdde0314610104578063081812fc1461012257806318160ddd1461015257806323b872dd146101705780632f745c591461018c575b600080fd5b6100ee60048036038101906100e991906112cc565b6102d2565b6040516100fb9190611314565b60405180910390f35b61010c610339565b60405161011991906113c8565b60405180910390f35b61013c60048036038101906101379190611420565b6103cb565b604051610149919061148e565b60405180910390f35b61015a610450565b60405161016791906114b8565b60405180910390f35b61018a600480360381019061018591906114ff565b61045d565b005b6101a660048036038101906101a19190611552565b6104b6565b6040516101b391906114b8565b60405180910390f35b6101d660048036038101906101d19190611420565b610566565b6040516101e391906114b8565b60405180910390f35b61020660048036038101906102019190611420565b6105d7565b604051610213919061148e565b60405180910390f35b61023660048036038101906102319190611592565b610689565b60405161024391906114b8565b60405180910390f35b61026660048036038101906102619190611420565b610748565b60405161027391906113c8565b60405180910390f35b6102846107f4565b60405161029191906113c8565b60405180910390f35b6102b460048036038101906102af91906112cc565b610886565b005b6102d060048036038101906102cb91906116f4565b61095b565b005b6000806000837bffffffffffffffffffffffffffffffffffffffffffffffffffffffff19167bffffffffffffffffffffffffffffffffffffffffffffffffffffffff1916815260200190815260200160002060009054906101000a900460ff169050919050565b6060600180546103489061176c565b80601f01602080910402602001604051908101604052809291908181526020018280546103749061176c565b80156103c15780601f10610396576101008083540402835291602001916103c1565b820191906000526020600020905b8154815290600101906020018083116103a457829003601f168201915b5050505050905090565b60006103d682610a5e565b610415576040517f08c379a000000000000000000000000000000000000000000000000000000000815260040161040c906117ea565b60405180910390fd5b6005600083815260200190815260200160002060009054906101000a900473ffffffffffffffffffffffffffffffffffffffff169050919050565b6000600680549050905090565b6104673382610aca565b6104a6576040517f08c379a000000000000000000000000000000000000000000000000000000000815260040161049d90611856565b60405180910390fd5b6104b1838383610b97565b505050565b60006104c183610689565b8210610502576040517f08c379a00000000000000000000000000000000000000000000000000000000081526004016104f9906118c2565b60405180910390fd5b600860008473ffffffffffffffffffffffffffffffffffffffff1673ffffffffffffffffffffffffffffffffffffffff1681526020019081526020016000208281548110610553576105526118e2565b5b9060005260206000200154905092915050565b6000610570610450565b82106105b1576040517f08c379a00000000000000000000000000000000000000000000000000000000081526004016105a89061195d565b60405180910390fd5b600682815481106105c5576105c46118e2565b5b90600052602060002001549050919050565b6000806003600084815260200190815260200160002060009054906101000a900473ffffffffffffffffffffffffffffffffffffffff169050600073ffffffffffffffffffffffffffffffffffffffff168173ffffffffffffffffffffffffffffffffffffffff161415610680576040517f08c379a0000000000000000000000000000000000000000000000000000000008152600401610677906119c9565b60405180910390fd5b80915050919050565b60008073ffffffffffffffffffffffffffffffffffffffff168273ffffffffffffffffffffffffffffffffffffffff1614156106fa576040517f08c379a00000000000000000000000000000000000000000000000000000000081526004016106f1906119c9565b60405180910390fd5b610741600460008473ffffffffffffffffffffffffffffffffffffffff1673ffffffffffffffffffffffffffffffffffffffff168152602001908152602001600020610dbd565b9050919050565b600a818154811061075857600080fd5b9060005260206000200160009150905080546107739061176c565b80601f016020809104026020016040519081016040528092919081815260200182805461079f9061176c565b80156107ec5780601f106107c1576101008083540402835291602001916107ec565b820191906000526020600020905b8154815290600101906020018083116107cf57829003601f168201915b505050505081565b6060600280546108039061176c565b80601f016020809104026020016040519081016040528092919081815260200182805461082f9061176c565b801561087c5780601f106108515761010080835404028352916020019161087c565b820191906000526020600020905b81548152906001019060200180831161085f57829003601f168201915b5050505050905090565b63ffffffff60e01b817bffffffffffffffffffffffffffffffffffffffffffffffffffffffff191614156108ef576040517f08c379a00000000000000000000000000000000000000000000000000000000081526004016108e690611a35565b60405180910390fd5b6001600080837bffffffffffffffffffffffffffffffffffffffffffffffffffffffff19167bffffffffffffffffffffffffffffffffffffffffffffffffffffffff1916815260200190815260200160002060006101000a81548160ff02191690831515021790555050565b600b8160405161096b9190611a91565b908152602001604051809103902060009054906101000a900460ff16156109c7576040517f08c379a00000000000000000000000000000000000000000000000000000000081526004016109be90611b1a565b60405180910390fd5b600a81908060018154018082558091505060019003906000526020600020016000909190919091509080519060200190610a029291906111bd565b5060006001600a80549050610a179190611b69565b90506001600b83604051610a2b9190611a91565b908152602001604051809103902060006101000a81548160ff021916908315150217905550610a5a3382610dcb565b5050565b60008073ffffffffffffffffffffffffffffffffffffffff166003600084815260200190815260200160002060009054906101000a900473ffffffffffffffffffffffffffffffffffffffff1673ffffffffffffffffffffffffffffffffffffffff1614159050919050565b6000610ad582610a5e565b610b14576040517f08c379a0000000000000000000000000000000000000000000000000000000008152600401610b0b906117ea565b60405180910390fd5b6000610b1f836105d7565b90508073ffffffffffffffffffffffffffffffffffffffff168473ffffffffffffffffffffffffffffffffffffffff161480610b8e57508373ffffffffffffffffffffffffffffffffffffffff16610b76846103cb565b73ffffffffffffffffffffffffffffffffffffffff16145b91505092915050565b600073ffffffffffffffffffffffffffffffffffffffff168273ffffffffffffffffffffffffffffffffffffffff161415610c07576040517f08c379a0000000000000000000000000000000000000000000000000000000008152600401610bfe90611c0f565b60405180910390fd5b8273ffffffffffffffffffffffffffffffffffffffff16610c27826105d7565b73ffffffffffffffffffffffffffffffffffffffff1614610c7d576040517f08c379a0000000000000000000000000000000000000000000000000000000008152600401610c7490611ca1565b60405180910390fd5b610cc4600460008573ffffffffffffffffffffffffffffffffffffffff1673ffffffffffffffffffffffffffffffffffffffff168152602001908152602001600020610dec565b610d0b600460008473ffffffffffffffffffffffffffffffffffffffff1673ffffffffffffffffffffffffffffffffffffffff168152602001908152602001600020610e0f565b816003600083815260200190815260200160002060006101000a81548173ffffffffffffffffffffffffffffffffffffffff021916908373ffffffffffffffffffffffffffffffffffffffff160217905550808273ffffffffffffffffffffffffffffffffffffffff168473ffffffffffffffffffffffffffffffffffffffff167fddf252ad1be2c89b69c2b068fc378daa952ba7f163c4a11628f55a4df523b3ef60405160405180910390a4505050565b600081600001549050919050565b610dd58282610e2e565b610dde81610fe0565b610de88282611029565b5050565b610e04600182600001546110ed90919063ffffffff16565b816000018190555050565b6001816000016000828254610e249190611cc1565b9250508190555050565b600073ffffffffffffffffffffffffffffffffffffffff168273ffffffffffffffffffffffffffffffffffffffff161415610e9e576040517f08c379a0000000000000000000000000000000000000000000000000000000008152600401610e9590611d63565b60405180910390fd5b610ea78161114b565b15610ee7576040517f08c379a0000000000000000000000000000000000000000000000000000000008152600401610ede90611dcf565b60405180910390fd5b816003600083815260200190815260200160002060006101000a81548173ffffffffffffffffffffffffffffffffffffffff021916908373ffffffffffffffffffffffffffffffffffffffff160217905550610f80600460008473ffffffffffffffffffffffffffffffffffffffff1673ffffffffffffffffffffffffffffffffffffffff168152602001908152602001600020610e0f565b808273ffffffffffffffffffffffffffffffffffffffff16600073ffffffffffffffffffffffffffffffffffffffff167fddf252ad1be2c89b69c2b068fc378daa952ba7f163c4a11628f55a4df523b3ef60405160405180910390a45050565b6006805490506007600083815260200190815260200160002081905550600681908060018154018082558091505060019003906000526020600020016000909190919091505550565b600860008373ffffffffffffffffffffffffffffffffffffffff1673ffffffffffffffffffffffffffffffffffffffff168152602001908152602001600020805490506009600083815260200190815260200160002081905550600860008373ffffffffffffffffffffffffffffffffffffffff1673ffffffffffffffffffffffffffffffffffffffff1681526020019081526020016000208190806001815401808255809150506001900390600052602060002001600090919091909150555050565b60008082846110fc9190611b69565b905083831115611141576040517f08c379a000000000000000000000000000000000000000000000000000000000815260040161113890611e3b565b60405180910390fd5b8091505092915050565b6000806003600084815260200190815260200160002060009054906101000a900473ffffffffffffffffffffffffffffffffffffffff169050600073ffffffffffffffffffffffffffffffffffffffff168173ffffffffffffffffffffffffffffffffffffffff161415915050919050565b8280546111c99061176c565b90600052602060002090601f0160209004810192826111eb5760008555611232565b82601f1061120457805160ff1916838001178555611232565b82800160010185558215611232579182015b82811115611231578251825591602001919060010190611216565b5b50905061123f9190611243565b5090565b5b8082111561125c576000816000905550600101611244565b5090565b6000604051905090565b600080fd5b600080fd5b60007fffffffff0000000000000000000000000000000000000000000000000000000082169050919050565b6112a981611274565b81146112b457600080fd5b50565b6000813590506112c6816112a0565b92915050565b6000602082840312156112e2576112e161126a565b5b60006112f0848285016112b7565b91505092915050565b60008115159050919050565b61130e816112f9565b82525050565b60006020820190506113296000830184611305565b92915050565b600081519050919050565b600082825260208201905092915050565b60005b8381101561136957808201518184015260208101905061134e565b83811115611378576000848401525b50505050565b6000601f19601f8301169050919050565b600061139a8261132f565b6113a4818561133a565b93506113b481856020860161134b565b6113bd8161137e565b840191505092915050565b600060208201905081810360008301526113e2818461138f565b905092915050565b6000819050919050565b6113fd816113ea565b811461140857600080fd5b50565b60008135905061141a816113f4565b92915050565b6000602082840312156114365761143561126a565b5b60006114448482850161140b565b91505092915050565b600073ffffffffffffffffffffffffffffffffffffffff82169050919050565b60006114788261144d565b9050919050565b6114888161146d565b82525050565b60006020820190506114a3600083018461147f565b92915050565b6114b2816113ea565b82525050565b60006020820190506114cd60008301846114a9565b92915050565b6114dc8161146d565b81146114e757600080fd5b50565b6000813590506114f9816114d3565b92915050565b6000806000606084860312156115185761151761126a565b5b6000611526868287016114ea565b9350506020611537868287016114ea565b92505060406115488682870161140b565b9150509250925092565b600080604083850312156115695761156861126a565b5b6000611577858286016114ea565b92505060206115888582860161140b565b9150509250929050565b6000602082840312156115a8576115a761126a565b5b60006115b6848285016114ea565b91505092915050565b600080fd5b600080fd5b7f4e487b7100000000000000000000000000000000000000000000000000000000600052604160045260246000fd5b6116018261137e565b810181811067ffffffffffffffff821117156116205761161f6115c9565b5b80604052505050565b6000611633611260565b905061163f82826115f8565b919050565b600067ffffffffffffffff82111561165f5761165e6115c9565b5b6116688261137e565b9050602081019050919050565b82818337600083830152505050565b600061169761169284611644565b611629565b9050828152602081018484840111156116b3576116b26115c4565b5b6116be848285611675565b509392505050565b600082601f8301126116db576116da6115bf565b5b81356116eb848260208601611684565b91505092915050565b60006020828403121561170a5761170961126a565b5b600082013567ffffffffffffffff8111156117285761172761126f565b5b611734848285016116c6565b91505092915050565b7f4e487b7100000000000000000000000000000000000000000000000000000000600052602260045260246000fd5b6000600282049050600182168061178457607f821691505b602082108114156117985761179761173d565b5b50919050565b7f746f6b656e20646f6573206e6f74206578697374000000000000000000000000600082015250565b60006117d460148361133a565b91506117df8261179e565b602082019050919050565b60006020820190508181036000830152611803816117c7565b9050919050565b7f596f7520617265206e6f74206f776e6572206f7220617070726f766564000000600082015250565b6000611840601d8361133a565b915061184b8261180a565b602082019050919050565b6000602082019050818103600083015261186f81611833565b9050919050565b7f6f776e657220696e646578206973206f7574206f6620626f756e647300000000600082015250565b60006118ac601c8361133a565b91506118b782611876565b602082019050919050565b600060208201905081810360008301526118db8161189f565b9050919050565b7f4e487b7100000000000000000000000000000000000000000000000000000000600052603260045260246000fd5b7f676c6f62616c20696e646578206973206f7574206f6620626f756e6473000000600082015250565b6000611947601d8361133a565b915061195282611911565b602082019050919050565b600060208201905081810360008301526119768161193a565b9050919050565b7f4e6f6e2d6578697374656e742061646472657373000000000000000000000000600082015250565b60006119b360148361133a565b91506119be8261197d565b602082019050919050565b600060208201905081810360008301526119e2816119a6565b9050919050565b7f4552433136353a20496e76616c696420496e7465726661636500000000000000600082015250565b6000611a1f60198361133a565b9150611a2a826119e9565b602082019050919050565b60006020820190508181036000830152611a4e81611a12565b9050919050565b600081905092915050565b6000611a6b8261132f565b611a758185611a55565b9350611a8581856020860161134b565b80840191505092915050565b6000611a9d8284611a60565b915081905092915050565b7f536f727279212054686973206b727970746f4269726420616c7265616479206560008201527f7869737400000000000000000000000000000000000000000000000000000000602082015250565b6000611b0460248361133a565b9150611b0f82611aa8565b604082019050919050565b60006020820190508181036000830152611b3381611af7565b9050919050565b7f4e487b7100000000000000000000000000000000000000000000000000000000600052601160045260246000fd5b6000611b74826113ea565b9150611b7f836113ea565b925082821015611b9257611b91611b3a565b5b828203905092915050565b7f43616e206e6f74207472616e736665727420746f2061207a65726f206164647260008201527f6573730000000000000000000000000000000000000000000000000000000000602082015250565b6000611bf960238361133a565b9150611c0482611b9d565b604082019050919050565b60006020820190508181036000830152611c2881611bec565b9050919050565b7f596f75277265206e6f7420746865206f776e6572206f66207468697320746f6b60008201527f656e000000000000000000000000000000000000000000000000000000000000602082015250565b6000611c8b60228361133a565b9150611c9682611c2f565b604082019050919050565b60006020820190508181036000830152611cba81611c7e565b9050919050565b6000611ccc826113ea565b9150611cd7836113ea565b9250827fffffffffffffffffffffffffffffffffffffffffffffffffffffffffffffffff03821115611d0c57611d0b611b3a565b5b828201905092915050565b7f4e6f74206d696e74696e6720746f206120302061646472657373000000000000600082015250565b6000611d4d601a8361133a565b9150611d5882611d17565b602082019050919050565b60006020820190508181036000830152611d7c81611d40565b9050919050565b7f54686520746f6b656e496420616c726561647920657869737473000000000000600082015250565b6000611db9601a8361133a565b9150611dc482611d83565b602082019050919050565b60006020820190508181036000830152611de881611dac565b9050919050565b7f536166654d6174683a20537562737472616374696f6e204f766572666c6f7700600082015250565b6000611e25601f8361133a565b9150611e3082611def565b602082019050919050565b60006020820190508181036000830152611e5481611e18565b905091905056fea26469706673582212205c9d1947ba6189d356af1cbd1620c47d8ced4fee8e1eb78c8c84b7709219339264736f6c634300080b0033",
  "immutableReferences": {},
  "source": "// SPDX-License-Identifier: MIT\npragma solidity ^0.8.0;\n\nimport './ERC721Connector.sol';\n\ncontract KryptoBird is ERC721Connector {\n\n    //Array to store the NFTs\n    string [] public kryptoBirdz;\n    //mappring to track if the kryptoBird is already created\n    //we use a string because we are minting by the picture\n    //e.g data location instead of the tokenid\n    mapping (string => bool) _kryptoBirdzExists;\n\n    constructor () ERC721Connector ('KryptoBird', 'KBIDZ') {\n\n    }\n    function mint (string memory _kryptoBird) public {\n        //uint _id = kryptoBirdz.push(_kryptoBird);\n        //This method do not work anymore since version 6.0\n        //because the push method only add an element\n        //but do not update the lenght\n        require(!_kryptoBirdzExists[_kryptoBird],\n        \"Sorry! This kryptoBird already exist\");\n        kryptoBirdz.push(_kryptoBird);\n        uint _id = kryptoBirdz.length -1;\n        _kryptoBirdzExists[_kryptoBird] = true;\n\n        _mint(msg.sender, _id);\n    }\n\n}",
  "sourcePath": "/Users/kedwin243/nft-marketplace-starter-kit/src/contracts/KryptoBird.sol",
  "compiler": {
    "name": "solc",
    "version": "0.8.11+commit.d7f03943.Emscripten.clang"
  },
  "schemaVersion": "3.4.1",
  "updatedAt": "2022-02-04T19:13:18.365Z",
  "networkType": "ethereum",
  "devdoc": {
    "kind": "dev",
    "methods": {
      "supportsInterface(bytes4)": {
        "details": "Interface identification is specified in ERC-165. This function  uses less than 30,000 gas.",
        "params": {
          "interfaceID": "The interface identifier, as specified in ERC-165"
        },
        "returns": {
          "_0": "`true` if the contract implements `interfaceID` and  `interfaceID` is not 0xffffffff, `false` otherwise"
        }
      },
      "transferFrom(address,address,uint256)": {
        "details": "This works identically to the other function with an extra data parameter,  except this function just sets data to \"\".",
        "params": {
          "_from": "The current owner of the NFT",
          "_to": "The new owner",
          "_tokenId": "The NFT to transfer"
        }
      }
    },
    "version": 1
  },
  "userdoc": {
    "kind": "user",
    "methods": {
      "supportsInterface(bytes4)": {
        "notice": "Query if a contract implements an interface"
      },
      "transferFrom(address,address,uint256)": {
        "notice": "Transfers the ownership of an NFT from one address to another address"
      }
    },
    "version": 1
  }
}